:020000040000FA
:060000000216880209DC73
:030013000209FEE1
:03002B00021419A3
:03003300020C2696
:03003B00020A5363
:030053000209118E
:03005B0002118B04
:030063000211ACDB
:03006B00020BCCB9
:03007B00020BFD78
:10008300020970010020FD0002012E05000000019D
:10009300721C7E1C0000841C901C00000000961C37
:1000A300BA1CC01CC61C00000000000000000101B7
:1000B3000204081020408001FFFF090D0101040123
:1000C300FEFF0000000000000006FFFFFFFFFFFF30
:1000D3000101010400C619000000E8030000FFFF4E
:1000E300921AE803000064006400B801A0BB0D008D
:1000F300A0BB0D00020200F8FF0705021E04010564
:100103001E02051E020A0A01010808010310270244
:10011300803E0102FEFFE8030A050001FFFF010A1A
:100123001401E0C503423F1A51123FF304B53F00E7
:1001330000803E010105030101FF0F10FEFFFB39A3
:1001430000000000933900000000FF000000FF00E2
:10015300C082C0831202B0600814601214601C8055
:100163002BEA6005EB42808023E85280801EEA6020
:1001730005EB42908016E852908011EBC394205017
:100183000BEA6005EB42A08003E852A002021EC006
:1001930082C0831202B0600814602C146050807B0C
:1001A300E852F374016A601274026A601574046A97
:1001B3007003EB428FEB42FD806153F7DFE8528F10
:1001C30080F343F72080F6E852F474016A601274F6
:1001D300026A601574046A7003EB42F6EB42FE8018
:1001E3003A53F7BFE852F680F343F74080F6EBC388
:1001F30094205027E852F574016A601274026A6011
:100203001574046A7003EB42F7EB42FF800D53F75A
:100213007FE852F780F343F78080F6D083D08222C1
:10022300C082C0831202B0600814602B14604E8039
:100233006CE852F352FD74016A600F74026A600F36
:1002430074046A7058EB428F805353F7DF80034383
:10025300F720E8528F8046E852F452FE74016A6038
:100263000F74026A600F74046A7032EB42F6802DD9
:1002730053F7BF800343F740E852F68020EBC39463
:1002830020501AE844E0F852F552FF74016A6010F6
:1002930074026A601374046A7003EB42F702021E6D
:1002A30053F77FE852F780F543F78080F6E9540768
:1002B300FC748C2CF582E4341DF583E0FBF4F8E93F
:1002C300C4540F540322C082C0831202B0600814C6
:1002D300601214601C802DEA6005EB42FD8025E866
:1002E30052FD8020EA6005EB42FE8018E852FE8052
:1002F30013EBC39420500DEA6005EB42FF800574B5
:10030300E04852FF02021EC082C0831202B060089E
:100313001460151460228034EA6005EB4280800388
:10032300E85280EB42FD8024EA6005EB42908003B3
:10033300E85290EB42FE8014EBC39420500EEA6027
:1003430005EB42A08003E852A0EB42FF02021EE944
:10035300C4540F54036007146013146020227801FF
:10036300E8F4FBEA602014602114601522740F592D
:10037300C394045004780280E7780480E37808800B
:10038300DFE58C586004EB528C22E8428C22121673
:1003930098601D1216A77005191919801A121529CC
:1003A300701F121501C37003E6673319191940074B
:1003B3001818182208080874FFF618F618F618F625
:1003C30022121501601712174D702192F012175661
:1003D3007019501720F014080808090909E7F618DE
:1003E30019E7F61819E7F61819E7F62212175660F7
:1003F300E6E869701F0808E62480F608E436F61874
:10040300547FB47F0CE654806007F6E418F618F6C0
:1004130022181822E9C6CC08C6CD08C6CE08C6CF16
:10042300C0E0E8C0E0EAC0E0EBC0E009E9F809E7B2
:10043300FA09E7FBE6F918E6F8C3EC98ED99EE9AAA
:10044300EBC2E7F5F0EFC2E795F0500E600CEBCF8F
:10045300FBEACEFAE9CDF9E8CCF8EAA2E7D2E7FA6B
:10046300EB33FB13F5F0EEA2E7D2E7FEEF33FFC564
:10047300F013A2E730E601B313C5F0C3C0E0C0F048
:100483007F00C39BFB605E9418600F401D14601ACD
:10049300D0E023F9D0E0F80205728AF0E94860035E
:1004A300D2F0E4AFF0FAF9F8803BEB30E40D89F0D9
:1004B300EA6003D2F0E4AFF0F9CAF8EB30E30D8859
:1004C300F0EF6002D2F0AFF0E4CAC9F8EB54076072
:1004D30014FBC3EA13FAE913F9E813F8EF13500214
:1004E300D2E0FFDBEDD0E0C0E030E739C3E49FFFAB
:1004F300F5F0EC98FC42F0ED99FD42F0EE9AFE42E5
:10050300F0D0E0F9D0E0F8E5F0607AE923F9EE20E5
:10051300E742D8028067C3EF33FFEC33FCED33FDD2
:10052300EE33FE80EAEC28FCED39FDEE3AFED0E036
:1005330023F9D0E0F84002801BC3EE13FEED13FD58
:10054300EC13FCEF135002D2E0FF08B800067F7FE4
:1005530074FF802EEF3350178CF020F00260100CE4
:10056300BC000C0DBD00080EBE000408E860DFE906
:1005730033E813FFEE2313FE4F4D4C8008E95480FC
:10058300FFE4FEFDFCEE33EF33F47004FCFD7E80EC
:10059300D0E0FBD0E0FAD0E0F8D0E0CFC618CEC66A
:1005A30018CDC618CCC6F92212169870041818185C
:1005B300221216A7700D74FFF61819F61819F618FB
:1005C30019F622E7548066F6121756700F12174D6C
:1005D30070F014F608F608F608F680D112174D707D
:1005E3000CF608F608768008E6447F80EC121504C2
:1005F300700C12152C60BFE65480F6E480BB121514
:100603002C700519191980A5E869700C763F1876C6
:100613008018F618F6E8F922E6CDC0E018ECC0E041
:10062300E633CD33CDD313F6E719FCE7191933CCF1
:1006330033C3947F400ECD9D502408E65480F6E4E6
:1006430018F6800FF4043D14501408E6447FF6189E
:100653007680E418F618F6D0E0FCD0E0FD22CCD387
:1006630013CCFD18E4C6CBC0E018E4C6CAC0E0084A
:1006730008ED08C633E613F618E433C675F003C372
:10068300CA97CA09CB97CB199C40047D08802EBD1D
:10069300000302075416B6FF050606081618C3CA58
:1006A30033CACB33CB33CA27CA09CB37CB193CC3A5
:1006B3007D08803E187D0820E75CC633C6CA33CA6E
:1006C300CB33CB33DDF1D5F0EB30E77BCA97CA09E7
:1006D300CB974ACB199C406F4B7025E620E02180D5
:1006E30066187D08C3CA97CA09CB97CB199CD3C692
:1006F30033C6CA33CACB33CB3350C9DDE7D5F0E1B8
:10070300D3E4C636C608C636C608C636C608C636D5
:10071300C61818188031C3CA97CA09CB97CB199C3E
:10072300B34097C633C6CA33CACB33CB33DD34D5D4
:10073300F02EC6A2E0C640C8CA27CA09CB37194A59
:1007430070BECB3CB480B90808E63308E633601FBB
:10075300181818D0E0FAD0E0FBD0E0FCD0E0FD227E
:10076300187D08CA27CA09CB37CB193CD38080131D
:10077300F618E4B67F11F618B6FF0EF618C6047025
:10078300D20808768080CAF618F618F680C50012DB
:100793001698604F1216A76012E7548066F612157A
:1007A30029701112174D703B090909F4F618F61850
:1007B300F618F6221215017015121756080808606C
:1007C300EAE6447FF618768018E4F618F622121744
:1007D30056601612174D7012E4F608F608F608E68E
:1007E3005480F609090918181822EAC0E0EBC0E0A2
:1007F300ECC0E0EDC0E0E687F0A4FBACF008E687D0
:10080300F0A42CFCE435F0FA1809E687F0A42C4B8D
:1008130060027401CA35F0FCE433FB09E687F0D2C9
:10082300F7A42CCB35F0FC1908E687F0A42BCC35C4
:10083300F0FBE433FD0819E687F0D2E7A42C4ACB9A
:1008430035F0CD3400FC09E687F0D2E7A42DCC3592
:10085300F0FDE433FA0918E687F0D2F7A42CCD357E
:10086300F0CA3400FC08E687F0D2E7D2F7A42ACC1A
:1008730035F07A7E20E70B0ACB33CBCD33CDCC33A7
:10088300CC33CB3350147004ED30E00ED2F1E4CD11
:100893003DCDCC3CCC3B5005DA05C2F1EB547FC6D1
:1008A3003308E63392F0FBE73309E733C39A502D5D
:1008B3002B70190C0D4C4D70151806E608C33370D8
:1008C3000D20F10AA2F013F6E418800B4024E4F69D
:1008D30030F002768018F618F618F68024D33B140D
:1008E300501074FFA2F013F6187680E418F618F689
:1008F300800FA2F013F618E63303F618ECF618EDA2
:10090300F6D0E0FDD0E0FCD0E0FBD0E0FA22C0E07E
:1009130074F1120E22A2AFE433F509D2AF85A70812
:10092300AFA1EF5508FE74105E600612195A75A147
:10093300EF74085E600812196075A1F78024EFA2B6
:10094300E092F0E508A2E082F05017906198E0F899
:1009530090049CE0C398A2D265D0335002E8F075AE
:10096300A1FEE509A2E092AF7F02020E81C0E0740E
:10097300F2120E22A2AFE433FED2AF9061A4E0F8EC
:10098300759B00E59158540860087591F71219A8F2
:100993008023E59158541060087591EF1219AE80C9
:1009A30014E591A2E092F0E8A2E082F05007E0C2E1
:1009B300E0F0121B049061A3E0F8E5E958540460E9
:1009C3000E121ADA75E9FB906193E0A2E640F2EEAB
:1009D300A2E092AF7F01020E81C0E074F2120E22F8
:1009E300A2AFE433FED2AF9061A5E0F8E5BF58545F
:1009F30004600675BFFB121B1C80D4C0E0C0D0E8A6
:100A0300C0E0E9C0E0C082C083A8C1E8C0E09004B0
:100A130009E0F8748828F582E43403F583D0E0F024
:100A2300900408E0F8A3E0687006E59590040BF0E5
:100A3300900409E004F0C394804002E4F0A374C678
:100A4300F0D083D082D0E0F9D0E0F8D0D0D0E0323B
:100A5300C0E0C0D0E8C0E0E9C0E0C082C083900439
:100A63008CE0F8A3E0687008539AFBA3740180221A
:100A7300C2E990048CE0F8740128F0740C28F58224
:100A8300E43404F583E0F5C190048CE0C394804022
:100A930002E4F080AC120AE330F039120B28803400
:100AA300120AE320F01430E72B74FFFCFBFA747F87
:100AB3008022E4FCFBFA7480801AB48008BC00F244
:100AC300BB00EF800F50EBF9E4C39AFAE49BFBE41D
:100AD3009CFCE499C6CC18C6CB18C6CA18C6F92222
:100AE300E4C9C608CAC608CBC6D3330308CCC63389
:100AF30092F0C3947F402E94184019C9B90704CAD1
:100B0300CBCC225025C309CA33CACB33CBCC33CC8D
:100B130033D9F422F4600DC9CCC313CB13CBCA135E
:100B2300CAD9F6CC22E4FCFBFA2214FCFBFA22C35A
:100B3300E498F8E499F9120B738026C3E49AFAE473
:100B43009BFBE920E7E9120B73E498F8E499F92297
:100B5300C3E498F8E499F9120B73E498F8E499F96B
:100B6300C3E49AFAE49BFB22EB20E7CFE920E7E01A
:100B7300B90010BB0008E88AF084F8AAF022E4FB6D
:100B8300C8FA22EB70227B10C833C8C933C933506B
:100B930007C39AC3DBF280069A50012ADBEAC83303
:100BA300F4C8C933F4C9FA2275F008E4C833C8C9D4
:100BB30033C933C99AC99B5004C92AC93BD5F0EC40
:100BC300FBC833F4C8E4C9FA22C0E074F2120E225F
:100BD300A2AFE433FED2AF90062FE05589600FE554
:100BE30089FA7900121DB690062FE0F45289C2C526
:100BF300EEA2E092AF7F01020E81C0E074F2120E0A
:100C030022A2AFE433FED2AF900630E0558A600FE4
:100C1300E58AFA7901121DB6900630E0F4528AC2D1
:100C2300EB80CDC0E074F2120E22A2AFE433FED209
:100C3300AF900631E0558B600FE58BFA7902121DF8
:100C4300B6900631E0F4528BC2E880A4080808EAA3
:100C5300C0E0EBC0E086F0E7A4FA180986F0E7A449
:100C63002AFA180986F0E7A42AFA180986F0E7A4F5
:100C73002AFA1986F0E7A4FBE5F02AFA190886F0A8
:100C8300E7A42BFBE5F03AFA190886F0E7A42BFB5F
:100C9300E5F03AFA18180986F0E7A4C5F02BFBE44F
:100CA3003AFA1908E7C5F0C6A426F6E5F03BFBE4DB
:100CB3003AFA1886F0E7A4F6E5F00826F6E43B08CE
:100CC300F6E43A08F6D0E0FBD0E0FA22080808E69A
:100CD30030E711121565120CE7080808C64480C6F0
:100CE30018181822181818E9799EC608CAC608CB1E
:100CF300C608CCC6C370207996CACBCC7019798E3E
:100D0300CBCC70137986CC700EF9802ACA33CACB48
:100D130033CBCC33CC331930E7F2CCCBCA335014BA
:100D23007004EA30E00DE4CA3ACACB3BCBCC3CCCEE
:100D3300500209C3E913C6CC182313C6CB18C6CA7D
:100D430018C6F922E4CFC0E0E4CEC0E0E4CDC0E0B1
:100D5300E4CCC0E075F020E626F608E633F608E6B4
:100D630033F608E633F6181818EC33FCED33FDEED2
:100D730033FEEF33FFC3EC9709ED9709EE9709EFC5
:100D830097191919400FFFEC97FC09ED97FD09EE30
:100D930097FE191906D5F0BFECF709EDF709EEF741
:100DA30009EFF7191919D0E0FCD0E0FDD0E0FED02F
:100DB300E0FF222518C582C0E0E51934FFC583C0D2
:100DC300E0E518C3958224F810AF0885831985825E
:100DD300188008858319858218D2AFCEF0A3E52049
:100DE300F0A37808E608F0A3DEFAEFF0A3E5812488
:100DF300FAF8E608F0A3E608F0A3E608F0A308086B
:100E0300E608F0A3E608F0A315811581D0E0FED033
:100E1300E0F8158115811581E8C0E0EEC0E022C03D
:100E2300D02518C582C0E0E51934FFC583C0E0E5CD
:100E330018C3958224F310AF08858319858218801F
:100E430008858319858218D2AFC8F0A3E9F0A3EA15
:100E5300F0A3EBF0A37908E709F0A3D8FAECF0A329
:100E6300EDF0A3EEF0A3EFF0A3D0E0F0A3D0E0F019
:100E7300A3D0E0F0A3E520F0A3E5F0F0A3228519C9
:100E830083851882E0C0E0A3E0F9A3E0FAA3E0FBC6
:100E9300A37808E0F608A3DFFAE0FCA3E0FDA3E0F3
:100EA300FEA3E0FFA3E0C0E0A3E0C0E0A3E0F5D031
:100EB300A3E0F520A3E0A3F5F010AF08858319851F
:100EC30082188008858319858218D2AFD082D08397
:100ED300D0E0F8D0E032121568181818120D471236
:100EE300163719191922121637191919080808E69D
:100EF30018181820E7E0120D471215681818182261
:100F0300090909E719191920E7DC080808E6181880
:100F13001820E703020D47121568181818120D4719
:100F230012156818181812163719191922121738BA
:100F3300B90003020F6FE49003317830791B80020C
:100F4300F0A3D8FCD9FA7A607B1D90008678CE791D
:100F5300018015E493A3AD82AE838A828B83F0A3D1
:100F6300AA82AB838D828E83D8E9D9E77582C57552
:100F730083BC740712139075820075833774001253
:100F83001390E473FF75F0108E1A8F1B85821F85F3
:100F9300831E851882851983E0CEA3E0CF851F8247
:100FA300851E83EBC9EAC8EDCBECCAC3E833C8E9B5
:100FB30033C9EA33CAEB33CBC3EA9EF51DEB9FF586
:100FC3001CB35004AB1CAA1DEC33CCED33CDD5F0D0
:100FD300DAAE1AAF1B22121698601C1216A76017FE
:100FE300121756700712174D7001D322C0D0121773
:100FF3004D7006D0D0B322C32233D0D0501430E08A
:10100300F6C3E7960809E7960809E7960809E796FD
:10101300B32220E0D5E6970809E6970809E6970882
:1010230009E697B322D083D082ECC0E0EDC0E0E4C0
:1010330093A3FCE493A3FDED4C600D12114CEC243F
:10104300FFFCED34FFFD80EFE493A3FCE493A3FDE9
:10105300ED4C600D121253EC24FFFCED34FFFD80C8
:10106300EFD0E0FDD0E0FCE493A3C0E0E493C0E064
:1010730022121698601B1216A760161217567007D5
:1010830012174D600CB322C0D012174D7005D0D08B
:1010930022C32233D0D0501330E0EBC3E7960809C4
:1010A300E7960809E7960809E7962220E0E4E69721
:1010B3000809E6970809E6970809E69722D083D03E
:1010C30082E9C0E0E493A3C386F0C5F095F0F90884
:1010D300E493A386F0C5F095F0700BE493A3C39952
:1010E3004005E9048002A3E475F002A42582F58299
:1010F300E5F03583F583D0E0F9E493A3C0E0E4930E
:10110300C0E022851983851882E0A3FEE0A3F520C1
:101113007808E0A3F608DFFAE0A3FFE0A3C0E0E06D
:10112300A3C0E0E0A3C0E0E0A3C0E0E0A3C0E01000
:10113300AF088582188583198008858218858319ED
:10114300D2AFD083D082021396C0E0C3E493960853
:101153007401939618400FE4936670080874019322
:10116300661870007019A3A3C3E4939608740193DF
:101173009618A3A3400DD0E0D0E0D0E0021064A302
:10118300A3A3A3A3A3D0E022C0E074F2120E22C251
:10119300D9901DA9E0C39400A2D265D0334005E0E5
:1011A300F91220AA7F01020E81C0E074F2120E220E
:1011B300C2DC901DABE0F9C39400A2D265D03340EA
:1011C300031220AA80DE7404800474028000CCC061
:1011D300E0EDC0E0E518C39CCCAD1950011D10AF84
:1011E300068C188D1980068C188D19D2AF12131224
:1011F300D0E0FDD0E0FC2274028000CCC0E0EDC062
:10120300E0E518C39CCCAD1950011D10AF068C1836
:101213008D1980068C188D19D2AF1212CED0E0FD35
:10122300D0E0FC2212169860251216A76020121730
:1012330056700302174D080808E76670101819E77F
:1012430066700A1819E76670041819E76622F42213
:10125300C0E0C0F088F0E4936670080874019366F8
:10126300187000A8F0A3A3700BD0F0D0E0D0E0D0AA
:10127300E0021064A3A3D0F0D0E022D083D082CCCC
:10128300C0E0E493A360061213331470FAE493A34B
:1012930060061214961470FAD0E0FCE493A3C0E045
:1012A300E493C0E022C008C3E096F50808A3E096E3
:1012B300420808A3E096420808A3E0964208A2D297
:1012C30065D033E5087001D3D00822CAC0E0E493A7
:1012D300A3C582CCC582C583CDC583F0A3C582CC0B
:1012E300C582C583CDC583DAE5D0E0CA22A2E792E1
:1012F300D65002F40430F70663F0FF05F0B3400361
:1013030084800384F40430D60563F0FF05F022CA19
:10131300C0E0E0A3C582CCC582C583CDC583F0A35D
:10132300C582CCC582C583CDC583DAE6D0E0CA22A7
:10133300C0E0E493A3D39C5010E493A3C39C400A5E
:10134300D0E0D0E0D0E002129BA3A3A3D0E02270B0
:1013530009080808226016181818C6C333C608C639
:1013630033C608C633C608C633C6D5E0EA22C0086A
:10137300C3E096F50808A3E096420808A3E0964266
:101383000808A3E09645087001D3D00822C09FF552
:101393009FE473D09F22D083D082C09FE493C0E0A8
:1013A300740193C0E0740293F59F227404800A745D
:1013B300038006740280027401C0E0F4041213E493
:1013C300D0E01216E32200C0D0251810AF08F5189C
:1013D300500C05198008F51850020519D2AFD0D06A
:1013E300222518F58210AF08F518400C151980084E
:1013F300F51840021519D2AF85198322BB0102E704
:1014030022C082C08389828A83BB0003E08002E416
:1014130093D083D08222C0E0C0D0E8C0E0A8A8D295
:10142300AFC2C7E8A2E792AFD0E0F8D0D0D0E032A5
:101433006017080808C6A2E713C618C613C618C65D
:1014430013C618C613C6D5E0E9226016080808C6F5
:10145300C313C618C613C618C613C618C613C6D5F3
:10146300E0EA22C3E0C696F608A3E0C696F608A310
:10147300E0C696F608A3E0C696F6222518F8E435EA
:1014830019F9222518FAE43519FB222518FCE4354D
:1014930019FD22C0E0E493A36C7009D0E0D0E0D042
:1014A300E002129BA3A3D0E022251810AF08F51881
:1014B300400C15198008F51840021519D2AF22E720
:1014C3006670100809E766700A0809E76670040881
:1014D30009E76622C3E09608A3E09608A3E096080E
:1014E300A3E096A2D265D03322E066701008A3E091
:1014F30066700A08A3E066700408A3E0662219195F
:1015030019E70947097009E727097005E733F4224A
:101513000922C3E096F008A3E096F008A3E096F052
:1015230008A3E096F022181818E60846087009E6A2
:1015330026087005E633F4220822C3E49396087460
:101543000193960874029396087403939622C3E654
:1015530097F60809E697F60809E697F60809E69765
:10156300F622181818E4C396F608E496F608E496EB
:10157300F608E496F622E056F008A3E056F008A336
:10158300E056F008A3E056F022E667F60809E6679E
:10159300F60809E667F60809E667F622E493F60813
:1015A300740193F608740293F608740393F622E623
:1015B30057F60809E657F60809E657F60809E65705
:1015C300F622E627F60809E637F60809E637F608AD
:1015D30009E637F622E026F608A3E036F608A3E08C
:1015E30036F608A3E036F622E026F008A3E036F04C
:1015F30008A3E036F008A3E036F022E647F6080930
:10160300E647F60809E647F60809E647F6227004B6
:1016130022600D18C6C333C608C633C6D5E0F41816
:1016230022E056F608A3E056F608A3E056F608A310
:10163300E056F622E4C397F709E497F709E497F72E
:1016430009E497F722600D08C6A2E713C618C6136C
:10165300C6D5E0F322C6F4C608C6F4C608C6F4C667
:1016630008C6F4C622C3E09608A3E09608A3E09652
:1016730008A3E09622C3E7960809E7960809E796C8
:101683000809E7962275D00075813F7518317519E1
:101693000300020F30E6084608C31346083360020E
:1016A300E633F422E7094709C3134709336002E726
:1016B30033F422600C08C6C313C618C613C6D5E09C
:1016C300F422E6F008A3E6F008A3E6F008A3E6F0A8
:1016D30022E0F608A3E0F608A3E0F608A3E0F6226A
:1016E300CAC0E0E6F0A308DAFAD0E0FA22E0FCA3ED
:1016F300E0FDA3E0FEA3E0FF22EAF0A3EBF0A3ECFE
:10170300F0A3EDF022E0FAA3E0FBA3E0FCA3E0FDED
:1017130022E8F0A3E9F0A3EAF0A3EBF022ECF0A3B4
:10172300EDF0A3EEF0A3EFF022E0F8A3E0F9A3E0DD
:10173300FAA3E0FB22E5C754F84401F5C779012277
:101743002518F582E43519F58322E7271947194748
:10175300194722E62618461846184622C2AF75D600
:101763009F020000221213995EE205121399B2E35D
:101773000512139968E40512139967E50512139985
:101783009AE60512139974C007121399E7C007125A
:1017930013996DC10712139934CF0712139945CFCB
:1017A30007121399E3CF07121399EECF0712139978
:1017B300F77F00121399EDFF02121399FCD1071260
:1017C30013990CD20712139921D20712139987D2B6
:1017D3000712139937CC07121399BACC071213992E
:1017E30020CD07121399C7BA0712139902BB071228
:1017F30013995DBB07121399B5BB071213993BBC31
:101803000712139977BC0712139909D50712139975
:1018130019D50712139930B40712139976B4071226
:10182300139999D407121399C7B10712139911B2D7
:1018330007121399A7B2071213992DB3071213991D
:101843005EB30712139976B307121399EAB307121B
:10185300139900B40712139913B4071213991DB403
:101863000712139993D10512139944D605121399AC
:1018730059D70512139985D70512139914D8051250
:101883001399DBDA0512139900800612139963800A
:1018930006121399138106121399DE810612139906
:1018A30033830612139913840612139910850612B3
:1018B3001399E886061213990F87061213999B87CB
:1018C30006121399F588061213996B890612139958
:1018D300A98906121399BB8906121399F577001289
:1018E3001399C37900121399FF7A00121399C27CDA
:1018F30000121399EEEC061213991AED06121399BE
:101903008BEF06121399CBEF061213990BF0061205
:1019130013991FF00612139938F00612139929F13F
:1019230006121399CEF106121399E2F106121399D6
:1019330002C50712139926C5071213993FC507124B
:10194300139971C507121399A1C507121399CEC52F
:101953000712139930C6071213993FC6071213993A
:1019630049C60712139956C60712139931AF0712C6
:10197300139951AF0712139990AF07121399ABAF95
:1019830007121399CAAF0712139930B007121399AC
:1019930039B00712139996B007121399BAB0071208
:1019A30013997BB10712139988B10712139999B14F
:1019B3000712139991D207121399A9D207121399F7
:1019C300D5D207121399F48907121399488B07127A
:1019D3001399568B07121399698B071213997E8BF0
:1019E30007121399938B07121399A68B0712139956
:1019F3001A8C071213997F8C07121399218D0712E2
:101A03001399E58D07121399F58D07121399048E17
:101A13000712139963D10712139987D107121399E8
:101A2300AFD107121399D7D107121399A4B807128C
:101A33001399CBB807121399E9B8071213995CB934
:101A4300071213991CA90712139935A907121399A1
:101A530041A90712139955A90712139973A90712DC
:101A630013997DA90712139987A9071213999AA9A4
:101A73000712139924AA0712139999AA0712139903
:101A8300CDAA071213991BAB0712139968AB071260
:101A9300139983AB071213998DAB07121399B3AB49
:101AA3000712139918AC0712139906D0071213994A
:101AB30028D007121399EFD407121399D89306125B
:101AC30013990294061213991F94061213993294D0
:101AD30006121399489406121399A69406121399A1
:101AE300DE9406121399D698061213991B9A0612BE
:101AF30013994E9A06121399B19A06121399349CAC
:101B0300061213995C9C06121399719C0612139981
:101B1300819C06121399C59C06121399209D0612E7
:101B23001399309D06121399F7C80712139911C917
:101B33000712139939C90712139952C90712139936
:101B430076C90712139994C907121399ABC90712DF
:101B53001399D9C907121399F4C90712139913D406
:101B6300071213990E9F071213991E9F07121399B9
:101B730025A00712139959A0071213997BA00712E6
:101B830013999EA007121399BCA007121399F6A0EC
:101B9300071213995BA1071213999DA107121399B9
:101BA300DCA1071213990DA20712139944A207127D
:101BB30013999EF7021213999AF802121399B8F81F
:101BC30002121399DFF802121399A4FA021213995D
:101BD300D2FA0212139987FB021213994EFC0212D6
:101BE30013995DFD021213998FFE02121399E2FB02
:101BF3000612139937FC06121399B1FC06121399B6
:101C0300C4FC06121399EBFC061213997EFD06120F
:101C1300139958FE06121399609D061213998B9D12
:101C230006121399569E06121399939E0612139940
:101C3300249F06121399C1A206121399D4A4061263
:101C4300139909BA0412139943BA0412139943BCA2
:101C5300041213997EBE041213996BC104121399D3
:101C6300DDC1041213997AC20412139990C20412AB
:101C7300139943C3041213997FC30412139996C390
:101C830004121399C2C304121399C5C304121399FE
:101C93001EC40412139971C40412139929C50412A2
:101CA300139966C604121399F3C8041213990CCB43
:101CB300041213993FCB041213999FCB0412139967
:101CC300F1CB0412139974CC0412139908CD0412A6
:101CD30013991ECF04121399BDD004121399F7D18F
:101CE3000412139996D304121399B7D304121399B8
:101CF30039CE071213993ECE0712139958CE071205
:101D030013999ACE07121399C3CE07121399DDCEF6
:101D130007121399F6CE071213991ACF07121399C4
:101D2300C0E70612139914E806121399E4E80612A1
:101D3300139916E90612139943E90612139994E9C4
:101D430006121399BEE906121399E2E906121399D2
:101D530022EA06121399ACEA06121399DDEA061277
:101D6300139904EB061213994AEB0612139968EBC5
:101D7300061213998CEB06121399ACEB0612139906
:101D8300E2EB0612139941EC06121399B0EC06121A
:101D9300139903BE061213993DBE0612139978BF19
:101DA300061213997EC006121399EEF606121399C2
:101DB300A2F70612139930CB07121399A1CB07127E
:101DC300139903CC071213991DE2061213992EE3FC
:101DD300061213993FE40612139982E5061213992A
:101DE300D8E50612139916E60612139924E606128D
:101DF3001399B5E706121399CBFC051213992DFD20
:101E03000512139911FF05121399F6F1061213998E
:101E130037F2061213996DF20612139994F3061210
:101E2300139930F506121399D0F506121399008011
:101E3300071213993A8307121399BA830712139956
:101E430037C20712139974C207121399A8C2071253
:101E53001399BBC2071213999CA207121399AFA33C
:101E63000712139971A4071213991CA5071213994A
:101E730048A507121399BDA5071213999FC307120B
:101E83001399BFC307121399D2C407121399D5C468
:101E930007121399B1C707121399E7C707121399CA
:101EA30001C80712139943C80712139953C807129D
:101EB3001399EDC80712139908B70612139912B7AD
:101EC300061213994CB706121399B5B70612139954
:101ED300D2B70612139974B8061213997DB8061275
:101EE3001399C2B806121399EBB806121399F8B8EE
:101EF3000612139969B906121399F4B906121399C4
:101F030042BA0612139980BA06121399E5BA061259
:101F1300139908BB061213997FBB06121399D6BBFC
:101F23000612139911BC0612139946BC0612139993
:101F330058BC061213996ABC0612139989BC06127F
:101F4300139992BC061213994DBD0612139999BDAC
:101F530006121399D7BD0612139960C60712139977
:101F6300A0C7071213996EB607121399A4B60712E6
:101F73001399ECB60712139945B8071213997F7F8B
:101F8300001213997795051213999B9605121399CD
:101F9300D596051213997F9805121399A9980512DE
:101FA30013991E9B051213995E9B05121399F49CBA
:101FB30005121399919D05121399E39D0512139927
:101FC300869E05121399BE9E05121399009F051252
:101FD30013996FA005121399BDA105121399EEA3CE
:101FE300051213991CA40512139943A405121399FE
:101FF3004CA4051213999CA4051213992EA505123E
:1020030013995DA805121399E0A805121399D7FF38
:1020130005121399EDFF051213990E9707121399E1
:10202300249707121399C897071213990798071251
:102033001399249807121399559807121399A29884
:1020430007121399D5980712139910990712139928
:10205300059B07121399FCD00612139927D3061276
:10206300139959D40612139971D406121399E9845A
:1020730007121399248607121399B6870712139927
:1020830003CB06121399AECB06121399CACC0612D0
:10209300139911CE06121399A8CE06121399AEBE48
:1020A3000712139924BF0712139951EF04121399BE
:1020B3001FF0041213992CF004121399E1F0041287
:1020C300139940F104121399DFF2041213994BF39D
:1020D3000412139906F50412139932F50412139995
:1020E30051F70412139979F704121399DEF70412C6
:1020F30013992EF8041213997FF904121399D2F944
:10210300041213994EFA0412139978DC06121399E8
:102113009FDC06121399F3DE061213991ADF0612D7
:1021230013996FDF06121399A1E0061213991DE1AB
:102133000612139939CD0712139998CD07121399E3
:10214300D6CD0712139917CE07121399E5B70512C7
:1021530013994EB80512139999B805121399D4B867
:102163000512139949BB0512139963BF05121399FD
:1021730083C10512139991C2051213996BC30512FA
:102183001399A5C406121399DFC40612139918C62E
:1021930006121399BEC706121399EBC706121399B9
:1021A3008EC806121399F1C80612139928CA06128B
:1021B3001399B6D00712139900D107121399C0FED1
:1021C30003121399CFFE031213992FFF03121399CE
:1021D300EDFF0412139983F303121399EEF3031221
:1021E3001399ECF40312139902F60312139988F668
:1021F3000312139961F70312139941F80312139908
:1022030063F9031213997CFA0312139905FD031260
:102213001399CE3D00121399DA3D001213993C3EF7
:1022230000121399463E00121399D93E00121399D6
:10223300153F00121399D53F00121399E23F001284
:102243001399454000121399DA4000121399104173
:10225300001213998D41001213992D430012139903
:10226300014500121399E245001213992C470012FD
:1022730013998E4900121399F34A00121399884B4C
:1022830000121399BB4C00121399AF4D001213990E
:10229300E84E001213997E53001213996B540012E7
:1022A3001399035500121399285500121399545585
:1022B30000121399EC550012139902560012139948
:1022C3002456001213998A5600121399A956001224
:1022D3001399D25600121399F25700121399C85842
:1022E300001213993D5A001213995E5A0012139962
:1022F300DF5A00121399855B00121399CD5B00120C
:1023030013993E5C00121399CA5C001213992E5D57
:10231300001213998E5D001213993D5E00121399FA
:10232300A95E00121399DC5E001213995A5F001222
:102333001399B66000121399266100121399B861BC
:10234300001213991B6300121399A26300121399CD
:10235300076400121399356600121399C1670012BE
:102363001399D167001213990568001213997368C2
:1023730000121399AE680012139910690012139991
:10238300A56900121399806B001213994B6D00120B
:102393001399556E001213995272001213991F73F9
:1023A30000121399377400121399E17500121399EF
:1023B300F1F101121399A8F201121399AFF301126B
:1023C30013992DF4011213996FF50112139990F5D6
:1023D3000112139948F601121399F3F60112139996
:1023E300D3FA01121399EFFC0112139956FE01124D
:1023F3001399CFD307121399BDD60312139918D784
:1024030003121399A2D70312139913D90312139921
:10241300EBD903121399D4DA03121399EBDA0312EB
:1024230013993DDB03121399A1DB03121399E2DB2A
:1024330003121399F5DB031213994BDC031213995F
:10244300A4DC03121399BCDC031213996CDF03128F
:10245300139901E0031213992BE00312139974E00B
:102463000312139964E203121399CEE20312139930
:10247300A2E303121399E5E303121399FFE3031293
:10248300139946E40312139966E40312139910E5B2
:10249300031213990EE60312139968E603121399B4
:1024A300B9E603121399C4E70312139968EA0312F6
:1024B300139995EA03121399FEEA0312139923EB76
:1024C300031213999DEB0312139966EC03121399EC
:1024D300A3EC0312139905ED03121399C6ED03122E
:1024E3001399C9ED03121399D3ED03121399DDED7B
:1024F30003121399F0ED031213996CEE031213995F
:1025030095EE03121399A8EE03121399D4EE031256
:102513001399FBEE031213991FEF031213995AEF4A
:1025230003121399CCEF03121399F4EF03121399C7
:1025330035F0031213996AF0031213998AF0031208
:102543001399C7F003121399FEF00312139908F2BB
:10255300031213993BF30312139951F303121399C3
:1025630077D3071213998FD30712139927CA071228
:10257300139908B00612139957B006121399F7B1BD
:1025830006121399B2B306121399F4B306121399F0
:10259300DDB406121399E7B50612139909B60612AC
:1025A300139953B606121399D4B6061213992ED85B
:1025B3000212139951D80212139944D90212139992
:1025C3008DD902121399E5D90212139941DA021235
:1025D30013998DDA0212139903DB021213998FDB1D
:1025E3000212139904DC0212139947DC02121399A5
:1025F30018E00212139967E202121399A1E2021280
:10260300139925E30212139956E602121399CBE6A6
:10261300021213995BE80212139963E902121399E8
:1026230079EA02121399EFEA02121399968C0612B1
:1026330013991FEC0212139922EC02121399F6EC70
:102643000212139932EE02121399F2EF0212139946
:10265300EDF102121399F8F20212139994F3021294
:102663001399DFF402121399E5F50212139948F650
:1026730002121399E5F602121399008005121399B9
:10268300A080051213990A8105121399B1810512CD
:102693001399108205121399BC820512139965854B
:1026A300051213998B86051213990F870512139937
:1026B300EC8805121399918905121399348A05122E
:1026C30013997CDF051213994C8B05121399CB8C4C
:1026D30005121399888E05121399099005121399FF
:1026E30063910512139973920512139919930512A5
:1026F3001399389405121399D0D40412139948D519
:102703000412139990D504121399D4D50412139972
:102713001DD60412139967D6041213999CD604127A
:1027230013991AD70412139974D704121399CDD895
:10273300041213994CD90412139963DA04121399EE
:1027430085DA0412139991DB04121399A2DB0412A4
:102753001399BADB04121399DADC04121399F7DC28
:1027630004121399CADD04121399EEDD04121399AE
:1027730005DE0412139926DE0412139948DE0412AF
:1027830013993ADF0412139992DF0412139908E1A3
:102793000412139966E10412139985E10412139943
:1027A300B7E20412139934E304121399A1E3041258
:1027B3001399E1E30412139943E404121399F3E424
:1027C30004121399C5E604121399B0E7041213997E
:1027D300AAE804121399B0E904121399CCEA04127B
:1027E3001399DAEA04121399B3EB0412139953EC15
:1027F3000412139997EC04121399ACEC0412139975
:10280300BDED0412139960EE04121399B8EE04128D
:102813001399E5A5071213998DA7071213994AA8CF
:10282300071213999FA807121399129B0712139962
:10283300309B07121399749B071213999A9B0712E3
:102843001399C09B07121399D89B07121399F09BF6
:1028530007121399089C071213996B9C071213997B
:10286300AD9C07121399CF9D07121399D89D071298
:102873001399E19D07121399EA9D07121399F49D89
:1028830007121399159E07121399B49207121399FD
:10289300949607121399A29607121399A7960712F3
:1028A30013993BBD0712139916D307121399CBFF44
:1028B3000112139961FE04121399D1D407121399CB
:1028C300008002121399578002121399C3800212D7
:1028D30013994F81021213990582021213994D82A3
:1028E30002121399668202121399898202121399B2
:1028F300AB8202121399E9820212139938830212EE
:102903001399638302121399C18302121399688482
:10291300021213991085021213998C8502121399CE
:10292300598602121399A08602121399EC86021299
:102933001399748702121399AD87021213990388AE
:10294300021213991F88021213994E8802121399C7
:102953005A8A02121399888B02121399B48B0212AA
:102963001399E88B02121399098C02121399188C8C
:1029730002121399238C02121399D28C0212139907
:10298300428D02121399CD8D02121399D58D021225
:102993001399428E021213997E8E02121399448F59
:1029A300021213991790021213996C900212139941
:1029B3000B9102121399659102121399AA910212B3
:1029C30013994394021213998695021213997098DE
:1029D30002121399549902121399389A02121399F5
:1029E300499A02121399BB9A02121399529B02122B
:1029F3001399B79B02121399A79C02121399CC9CAB
:102A030002121399EA9C02121399069D021213995A
:102A1300799D02121399889D02121399109E021236
:102A230013990D9F021213991A9F02121399239F50
:102A33000212139905A10212139927A202121399E4
:102A430037A20212139965A302121399E4A3021287
:102A53001399FFA4021213993BA50212139915A708
:102A630002121399D2AA02121399E6AA0212139917
:102A7300F0AA02121399FAAA0212139904AB0212D2
:102A830013991DAB0212139927AB0212139994AB3E
:102A9300021213999FAB02121399C7AB0212139937
:102AA300D2AB0212139937AC0212139942AC021241
:102AB300139966AC021213998AAC02121399FCACF7
:102AC3000212139945AD0212139961AD02121399C3
:102AD300D2AD021213991EAE0212139967AE0212FF
:102AE3001399A5AE0212139926AF02121399CDAF13
:102AF300021213999CB10212139901B20212139993
:102B03002FB30212139955B3021213999DB40212F3
:102B13001399D7B702121399D5B902121399A0BB0F
:102B23000212139939BC021213993ABE0212139975
:102B3300EFBE0212139928BF021213998EBF02121D
:102B4300139998BF02121399C1C10212139900C3BA
:102B53000212139957C30212139902C40212139952
:102B6300B2C502121399FFC6021213991FC70212AC
:102B7300139974C70212139975C8021213999DC849
:102B830002121399FCC802121399F4C90212139981
:102B93006BCA021213997ECB02121399ECCB021269
:102BA3001399EBCC0212139945CF021213996ECFEE
:102BB30002121399D4D00212139956D20212139906
:102BC300ADD2021213995BD30212139900D40212ED
:102BD300139959D40212139917D502121399A9D52F
:102BE3000212139908D6021213994AD602121399A4
:102BF3007BD602121399D2D70212139900800312C3
:102C030013993280031213996B800312139929824B
:102C130003121399FF82031213995E83031213990C
:102C2300748403121399C084031213994E870312F9
:102C33001399288A031213996F8B03121399078C24
:102C430003121399138C031213995C8C03121399B7
:102C53009E8D03121399948E03121399BE8E031241
:102C63001399148F031213996D8F03121399E08F25
:102C7300031213991692031213999893031213993B
:102C8300839403121399CD95031213990598031294
:102C93001399029B03121399119B03121399A59B7A
:102CA30003121399509C03121399939C03121399C3
:102CB300DC9C031213992C9D03121399909D03120C
:102CC3001399029E031213991E9E031213994D9E8C
:102CD300031213998C9E03121399879F031213995E
:102CE30036A003121399B3A203121399E5A3031297
:102CF3001399BDA4031213993FA50312139974A941
:102D030003121399A3A903121399FEA9031213998A
:102D130031AA03121399A9AA03121399DCAA031265
:102D230013993DAB031213998DAB031213995AAC4C
:102D33000312139913AD03121399D7AD0312139909
:102D430051B003121399B3B10312139904B30312CD
:102D5300139928B4031213992BB4031213995AB479
:102D63000312139952B60312139911B7031213994D
:102D730040B7031213995EB80312139926B90312CD
:102D83001399E4BA0312139916BB0312139958BB90
:102D93000312139957BC03121399CABC0312139954
:102DA300F3BE0312139952BF03121399A6BF031262
:102DB3001399D5C103121399B8C20312139974C39B
:102DC3000312139988C3031213999CC30312139913
:102DD300C9C303121399F9C303121399B4C5031298
:102DE3001399C6C6031213991BC70312139964C719
:102DF300031213998BC70312139953C80312139920
:102E0300F9C8031213997FCA03121399C6CA03128E
:102E1300139938CB031213998DCC0312139936CD22
:102E2300031213996ACD0312139982CD03121399D6
:102E330025CE03121399A1D00312139949D2031279
:102E4300139967D20312139985D20312139951D39D
:102E5300031213999FD6031213996D8401121399C8
:102E6300A58401121399A58901121399EB89011203
:102E73001399218B01121399868B01121399FB8CE1
:102E8300011213990590011213992E9101121399AE
:102E9300419B01121399D19B01121399BB9E0112FD
:102EA3001399C89F011213992BA00112139973A1AF
:102EB30001121399E1A30112139973A50112139936
:102EC30000A6011213991FA701121399ACA70112AF
:102ED3001399B6A701121399DEA7011213997EA8BD
:102EE3000112139969A90112139936AA01121399B0
:102EF30053AA011213997CAA01121399A9AA0112C8
:102F03001399F0AC01121399BFAD01121399FEADE1
:102F13000112139980AE0112139921AF0112139973
:102F230053AF011213999AAF01121399CDAF011246
:102F3300139911B00112139960B00112139965B07E
:102F430001121399C1B00112139905B1011213991A
:102F5300DFB10112139944B201121399AAB20112FB
:102F6300139925B3011213998DB60112139990B7D2
:102F7300011213990EB90112139924BC011213996A
:102F8300C6BC011213990FBF01121399CABF0112D4
:102F9300139909C001121399E1C101121399FEC1DA
:102FA3000112139907C20112139910C20112139946
:102FB3001BC2011213993AC201121399DEC3011203
:102FC30013993BC40112139945C4011213994FC4B9
:102FD30001121399AEC401121399F8C40112139983
:102FE300F9C50112139950C60112139961C7011251
:102FF3001399AAC70112139964C8011213997BC9C3
:103003000112139950CA0112139997CB0112139904
:103013009BCC0112139994CD01121399ACCD0112DB
:103023001399E3CD01121399EDCD01121399F7CD45
:103033000112139902CE0112139920CE0112139992
:1030430068CE01121399C6CE01121399EDCE011267
:103053001399FFCE01121399B4CF01121399EDCF37
:10306300011213990FD10112139962D1011213990D
:1030730048D2011213996FD201121399DFD20112B0
:1030830013995BD301121399B7D401121399DED5A7
:1030930001121399A0D6011213996ED70112139935
:1030A3002CD80112139914D901121399BED9011204
:1030B300139926DA01121399DBDA0112139937DB1C
:1030C300011213998FDB0112139955DC0112139925
:1030D30078DC0112139933DD0112139955DD0112C6
:1030E3001399B6DD01121399E6DF01121399DFE09C
:1030F300011213998BE101121399ACE30112139995
:10310300F5E30112139940E4011213999CE40112AF
:103113001399FAE4011213991EE50112139942E57A
:103123000112139977E5011213999FE5011213997F
:10313300E4E50112139938E60112139991E601129D
:1031430013998BE70112139929E9011213996EE977
:103153000112139997E90112139920EA01121399A5
:1031630093EA01121399A1EA01121399C5EA011214
:1031730013991BEB0112139936EB01121399F1EB1F
:10318300011213991DEC0112139960EC01121399AA
:10319300C3EC01121399D1EE01121399FDEE011242
:1031A3001399B8EF011213999CF00112139930F19E
:1031B300011213994BF20512139983F20512139915
:1031C300A4F205121399E6F2051213994AF30512B4
:1031D300139954F30512139964F3051213999BF38E
:1031E3000512139944F7051213990CF90512139953
:1031F300F0FA0512139992FB051213991CFC0512A0
:103203001399508004121399F98004121399D881E9
:1032130004121399E4820412139904830412139978
:10322300268404121399D685041213994386041233
:1032330013991487041213991A8804121399928804
:1032430004121399CD880412139926890412139931
:10325300618904121399AA89041213993E8A0412EC
:103263001399D48A04121399A98B041213997C8C91
:10327300041213990A8D04121399308D04121399B1
:103283005D8D041213998E8D041213995B8E0412B3
:1032930013996B8E04121399BE8E04121399CB8E5D
:1032A30004121399D88E04121399E18E0412139900
:1032B300458F04121399A38F04121399EE8F0412EE
:1032C30013990990041213993090041213994D9095
:1032D30004121399599004121399EA910412139941
:1032E3000392041213997F92041213999292041277
:1032F3001399A29204121399469304121399B29448
:1033030004121399C595041213996596041213991F
:103313006F9604121399EE9604121399FF960412F2
:1033230013993E97041213996C97041213993998C1
:1033330004121399909804121399C99804121399BB
:103343001F99041213993D99041213998B9904122E
:103353001399569A04121399A49A04121399F19A81
:1033630004121399749B041213999E9B04121399CC
:10337300D49B04121399E39B04121399429C0412E5
:103383001399BA9C04121399FB9C041213994B9D35
:1033930004121399769D04121399909D04121399A4
:1033A300AA9D041213997F9E04121399899E0412F5
:1033B3001399C49E04121399D49E04121399259F42
:1033C30004121399399F041213995BA004121399E1
:1033D30070A00412139903A10412139977A1041284
:1033E30013991CA20412139927A2041213998AA3F6
:1033F30004121399A6A304121399F2A304121399A6
:1034030060A40412139992A404121399ACA4041295
:1034130013990CA504121399ABA504121399F6A5DD
:103423000412139949A804121399E1A804121399D9
:1034330058A904121399B5AB04121399CDAB041216
:103443001399D0AB04121399DCAB04121399F0ABAC
:1034530004121399F8AB041213992FAC04121399A5
:1034630023AD04121399ADAD041213992FAE0412B8
:103473001399AFAE0412139986AF04121399A8AF30
:103483000412139941B0041213999EB004121399B4
:10349300A1B00412139910B1041213995CB204126F
:1034A30013996FB304121399FAB3041213990DB558
:1034B30004121399D4B50412139905B6041213997F
:1034C3002BB60412139934B60412139963B604127B
:1034D300139913B704121399C3B70412139936B887
:1034E30004121399D9B8041213994CB904121399FD
:1034F3008BB904121399D4B9041213994B8C061285
:103503001399B58B06121399268A061213991AB6C4
:10351300051213999FB4051213999DB305121399BC
:103523005EB10512139908B1051213994BAF051239
:103533001399C2AC051213993CAC05121399F8AA5E
:1035430005121399A8DE05121399A8DD0512139924
:10355300B4A9051213992DA905121399C9DC0512F3
:1035630013990DDC0612139918AD07121399F0ACD9
:103573000712139983AC0712139923AC07121399FB
:10358300BAD005121399E0CF0512139916CF05127D
:10359300139985CD051213994ECD0512139920CD9C
:1035A30005121399D4CC051213993DCC0512139926
:1035B300ADCB0512139987CB051213993CCB05129A
:1035C300139906CB0512139989CA0512139924CAB4
:1035D30005121399D3C905121399FBC80512139940
:1035E3006BC8051213991FC8051213999AC70512C0
:1035F300139955C70512139939C705121399E1C5D4
:10360300051213996EDB06121399B3C505121399AC
:10361300ACD706121399D1D60612139972D4071296
:10362300139957D4071213997A92061213991C917E
:1036330006121399B390061213994A90061213991E
:1036430080C50512139904C5051213998B900712AF
:1036530013997C8F071213992A8F06121399B68E2A
:10366300071213993D8E0712139900F2051213994D
:10367300A7F1051213996C8E0612139972F10512B4
:103683001399938A051213993DF10512139909F1C0
:10369300051213999CF00512139984F005121399DE
:1036A3005FF00512139938ED051213990BEB051210
:1036B300139912E9051213999EE8051213994FE81D
:1036C3000512139909E805121399ABE7051213992B
:1036D300CEAC061213993CAC06121399B38D0612A5
:1036E300139951AB06121399D9A90612139994A7EA
:1036F30006121399CFA606121399B6EB0200000027
:1037030080FB8F0001002C1B87000100FB1D35008F
:103713000400BF1D25000200C31D26000200C51DB5
:1037230027000200C71D28000100D11D2900010048
:10373300D21D84000400D31D86000100D71D2A007A
:103743000100D81D2B000100D91D2C000100DD1D37
:103753002D000800141B2E000100DE1D2F000100A8
:10376300DF1D30000100E01D31000100E11D3200CA
:1037730001001C1B330001001D1B34000100E21D6E
:10378300360001001E1B38000100E31D3900010053
:10379300DC1D83000200F91D63000100291B640086
:1037A3000100DA1D65000100DB1D6D0001002A1B0D
:1037B300710008000C1B66000100F81D43000100A6
:1037C300E91D44000200EA1D45000100EC1D46000E
:1037D3000200ED1D47000800211B48000100EF1DFA
:1037E3004B000100F01D04000100FC1DA1000100BD
:1037F300FF1D37000100FE1D88000100FD1D3C0078
:1038030001001F1B3D000100E41D49000200F11DE2
:10381300670001002B1B4D000200F31D4E00010049
:10382300F51D4F000200F61D3E000100E81D51008A
:103833000100E51D52000100E61D53000100E71DD4
:1038430054000100201B0000000000000001363678
:103853000101000102010001030100010401060648
:1038630005020000070100340801000F09040101EB
:103873000D0100FF0E08000017020000190100FFF0
:103883001A0100011B0100FE1C0100081D020000BB
:103893001F01000120010001210200002301000F8C
:1038A300240200002601000127010008280200FF6E
:1038B3002A0100072B0102402C0100002D01000109
:1038C3002E0100012F0100FF30010B1D3108000004
:1038D3003A0100083B01000F3C0100013D0100FFDC
:1038E3003E04000042040000460400004A040000B5
:1038F3004E04000052040000560400005A04000065
:103903000000000020016984000001002001698497
:103913000000020020016C840000030020016A847F
:103923000000040042016D800000050042017E801A
:10393300000006004201A080000007002001AB80C8
:10394300000000404201A0800000100042018F806F
:1039530000001100200101070000120010038B1D5D
:1039630006000000101100000800000020330000D2
:103973000C005500393300000C001C0042330000DA
:10398300120055002001000014000E004222000026
:103993000103710301030103010301030103220373
:1039A30002030103100300030003000300030003E9
:1039B3000003000342030003240306030003000380
:1039C300040312032503230325032303040304032E
:1039D3000003000300034403000300032303000365
:1039E300650321003503810300030503000300037E
:1039F300000300032503230303007100300160006B
:103A03001100700031022003500480001000610097
:103A130000001400630073007200620043000000A2
:103A23001300060000000000040012000000000064
:103A33000000000004000400370037003C0244008B
:103A43000000000000000000650000003500810058
:103A53000000050000008300000001017101010165
:103A63000101110101013101010101018001100175
:103A730061013B00140063017301720162014301A0
:103A83000001130106013D0135000401120100018B
:103A930000010001000104010401330133013C0171
:103AA30044013201360000010001650100013500C7
:103AB30081010001050182018301000103047104F6
:103AC30002046004110470040204020401040204E9
:103AD3001004610400041404630473047204620494
:103AE3004304000413040604000400040404120441
:103AF30000040004000400045104640000040004F2
:103B030000044404000400040004000465040004E9
:103B130035048104640005040004830400040302E3
:103B230071023001600211027002010202020202FC
:103B33008002100261023A004100630273027202C2
:103B43006202430200021302380000020002040270
:103B53001202000200020002000204020402370003
:103B630037003C02440200023900000200026502F1
:103B73000002350281020002050282028302000272
:103B830036000100060000000F00000000000000E6
:103B930000000000000003FFFF00000403FFFF001C
:103BA30000FFFF0FF4010005C4040320000100001F
:103BB3000B000000000000000003010F00000000E4
:103BC30000000000000000000000000000000000F2
:103BD3000000000000000000000000000000262399
:103BE30080232C233022322386233223922338232B
:103BF3003022322386233E233022442330224A2399
:103C0300302250233022562330225C233022622379
:103C13009823682330220000000000000000000009
:103C230000006E23AA23742330226E23AA23742355
:103C33003022622398237A2330220000982613002F
:103C430044261F004A261F805026010098260200A2
:103C5300CC250300D2250400D8250500DE25060067
:103C6300EA253000082631000226320014263300EC
:103C73001A2635002026340026263600FA3611008F
:103C8300382614003E261500FC25FFFF00000A001D
:103C93000000020000000400000008000000100003
:103CA3000000200000004000000080000000000130
:103CB30000000002000000040000000800000010E3
:103CC3000000002000000040000001962E06C02ED8
:103CD30008BA2E0BD82E10AE2B029C2E05AE2E0743
:103CE300A22E0C7E2E0D8A2E64AA29FF000007EC5B
:103CF300FDFDFDECDCDCCCBCACAC9C9C8C7C7C6C1E
:103D03006C5C5C5C4C4C3C3C2C2C1C1C00160F006B
:103D1300000B150B020002220F3300000E5A6967D5
:103D2300426565416C6C69616E63653039010305F9
:103D330007090B0D0F00020406080A0C0D150AF4FF
:103D4300D4C0A595827263615550490001191618B4
:103D5300161618230300303017181921301B1D1FA6
:103D630030303016181920231A1C1E3000034A491C
:103D7300434E181A25050200393D3F373C3C362C8B
:103D8300442D0C0E020B040B0A0708000F02040259
:103D9300010101010902E803000000BE040AF13C2D
:103DA30000000000403D0E00FA067F00E8031E1EDF
:103DB30000050C08040400102809080903010C0578
:103DC300030815120300FF0A0C1004C082C083E924
:103DD30090197CF00240D374F4120DB68A088B0953
:103DE300EB5480604D800EEEFAEFFB122290EEFA58
:103DF300EFFB121EE290197CE0F9121EF48A0A8B83
:103E03000BAE0AAF0BEE4F60208E828F83E0641AF5
:103E130060D5EEFAEFFB12222AE9F974FF6960CE4E
:103E2300EEFAEFFB121EE880CCAA08E5096480FBDA
:103E330080047A007B000240BB74F7120DB67AFF50
:103E43000254FB74F6120DB6E9FEEAFF7A047B0016
:103E53001244CEA808A909EA496034EF8A828B8309
:103E6300A3A3A3F0EE8A828B83A3123ECAE4F0A33A
:103E7300F090198B1244EE700990198BE8F0A3E9C6
:103E8300803FE0FB8A828B83A3A3A3E06F70047956
:103E9300008031EAFCEBFD8A828B831244EE70E4EE
:103EA30074FF6F700C8C828D83123ED1E4F0A3807B
:103EB3001090198B125E2290198B123ED1EAF0A357
:103EC300EBF079010256A4A3F08A828B8322126D50
:103ED300398882898322C082C083EA126E3B3BF514
:103EE30083E0FA90198B800488828983125CC46012
:103EF3001C88828983A3A3A3E0FBEA6B600574FF9C
:103F03006B70E588828983A3A3E0F9800279FF02BD
:103F130040D374F4120DB6EAFEEBFF8A82F58312E6
:103F23005E2212222AE9F50874FF697003023FC674
:103F33007A197B00121EDCEA4B7003023FC68A82A9
:103F43008B8374341268A3A3EA2402FCE43BFD745C
:103F5300061213128E828F8312718B8882F583125D
:103F63006E4D8A828B83A3A3A3A3A3A3A3A3123F10
:103F7300CBA3A3A3A3A3A3EA240AFCE43BFD740CF1
:103F83001213128E828F83125F55C8126E3B38F55F
:103F930083E0C0E0EA2416F582E43BF583D0E0F049
:103FA300EE240CF8E43FF98882F583126E51EA247B
:103FB30017F582E43BF583123FCBE4F0A3F0A908A5
:103FC300121EE879010240BBECF0A3EDF088828970
:103FD3008322C082C083901989125E220240D37467
:103FE300F4120DB68A088B09ECFEEDFF7A08124035
:103FF3003570047910803812409F1240C7740C1238
:104003001743125E2288828983A3A3A3A31277E5B1
:104013009019811244EE90198160111240C28003FD
:10402300EAFCEB1244E970F88C828D83124099020A
:1040330040BB7B00121F728A0A8B0BA80AA90BEAEA
:10404300492274F4120DB689088A09ECFEEDFF7A51
:104053000A12403570047910803A12409F8A828B8D
:1040630083A3A3A3E4F0A31240B2E5091240B2A3D1
:10407300EEF0A3EFF09019851244EE9019856011CC
:104083001240C28003EAFCEB1244E970F88C828D83
:10409300831240998022126D397900221240A322A3
:1040A3008A828B83E4F0123ECAA3A3E508F02212AE
:1040B30054ECA3A3221213C97F040211068F83E0D9
:1040C300FCA3E022A3E5091254F1EEF0A3EFF022E2
:1040D300D083D08202139674F2120DB6EAFEEBFF80
:1040E3008C088D091222A88B0DA90DEA4960198A43
:1040F300828B83A3A3A3EEF0A3EF1254E8E508F0A9
:10410300A3E509F0790080027901025EA474F41238
:104113000DB674F71214ACE9FE8518828519837401
:1041230001F0EC7006EDC39406404D74036A4B60D6
:1041330047740112147E880A890B780A1213B67C1D
:10414300127D007A007B00EE1241861213C9E960EA
:104153001CE4F50AF50B780A1213B6740312148ED5
:1041630074021214861222FC74021213C985188277
:10417300851983E064017004790180027900740970
:104183000240B8F91222AE74022274E8120DB6741A
:10419300FA1214AC89128A168B178C088D09123601
:1041A3009A8A148B15EA4B7005790202431CAA08FC
:1041B300AB09A9121222C6E9F50FA2E6401C901919
:1041C30089125CC46014E82419F582E439F583E0AC
:1041D30064017006E50FD2E6F50F7C067D007900D9
:1041E300AA18AB19121ECA741F1217431243216077
:1041F30009E054FCF0E044018003E054FC12723304
:10420300125CC4602B741E121743E0FE88828983FC
:10421300A31211CDEEFD7402121743E05403FCAA5E
:1042230008AB09A91212224E74021213C9E97005D0
:10423300790102431C7422121743125CC460128575
:104243001882851983E04404F07402121743126D37
:104253003574201217431243216005E0440880039C
:10426300E054F7F074211217431243216005E04430
:10427300108003E054EFF07424121743E0C0E0749D
:1042830004121743D0E0F07405121743EEF07803DD
:10429300851882851983E054046002780574251219
:1042A3001743124915E82510FEE43511FF1245B3F3
:1042B3006063AC0AAD0BAA18AB1912229C742712C7
:1042C3001743125E341213B2AC10AD111260A31275
:1042D30013C9750C1E780C1213BA750C7F750D1962
:1042E300780C1213B6780A1213B68E0C8F0D780C55
:1042F3001213B678081213B6A90FAC14AD15AA168B
:10430300AB171236A674091213C9E9FEAA0AAB0B3E
:10431300121F7880027E10EEF97406026D43124379
:104323002522E08518828519832274EA120DB6745A
:10433300FE1214AC890B8A148B158C0E8D0F7E0024
:104343007F00750A00741812174312491580111261
:1043530044DF1223088B09EE2AFEEF3509FF050A15
:10436300126B4E502EE50A75F0061248CC2403FE5C
:10437300E43FFFA3A3E070E60EEE70010F8882898D
:1043830083A3A3A3A31244EE8882898360C1125C32
:104393003580C2EEFAEFFB1244CE8A0C8B0DEA4B4A
:1043A30070030244C2750A008030A818A919881244
:1043B300891378121213B678081213B68A828B8384
:1043C3001244DF12230E74041213C9127185E50817
:1043D30028F508E50939F509050A126B4E507CE505
:1043E3000A75F006A4F8A9F0E51028F582E5111284
:1043F3006B351244D68A828B83A312545CF0125419
:10440300D0125457F0E5082403F508500205098833
:10441300828983E070C2EA240308E43BF98882F5C9
:10442300831244D6A38582088583098A828B83A35A
:10443300A3A3A31240C28C82F583E5824583700354
:104443000243ADAC08AD09AA82AB8388828983E0BD
:10445300F91222DE8A088B090243DB780C1213B6A9
:104463008E088F0978081213B67420121743124965
:104473000B1213BAE4F508F50978081213B674227F
:1044830012174312490B1213BA742212174312491B
:104493000B1213BA75080078081213BA750801785D
:1044A300081213BAAC0EAD0FAA14AB15A90B124D1B
:1044B300A91213C9E9FEAA0CAB0D121F7880027E64
:1044C30010EEF974021213C90244FC121F728A0817
:1044D3008B0922E0850882850983F022127221AAC2
:1044E3000EAB0FA90B22FD8C828D83125E2AEA4B41
:1044F30022EEF98004AA12AB137F0E02110674ECAC
:10450300120DB6890A8A108B11ECFEEDFF7414129A
:10451300174312470770030245A4A808A9097C00A2
:10452300800D1246EA50010B12471A5001090C85FF
:104533000C82850D83E0FAECC39A40E674016A703D
:104543000AA3E07006750E01750F0078081213B602
:10455300780E1213B6741C1217431246E41213BAE0
:10456300E4F50CF50D780C1213B6741E12174312F2
:1045730046E41213BA741E1217431246E41213BA16
:10458300750B00780B1213BA750B04780B1213BA60
:10459300124D9F1213C9E9FEAA08AB09121F7880B6
:1045A300027E100246CD740A1213C97F0C02110653
:1045B300EEFAEFFB121F728A0A8B0BEA4B22F5838A
:1045C3001257EC22F8E4350DF98882F5831248FB83
:1045D300A322851082851183E0F8E508C39822742D
:1045E300EC120DB6890A8A108B11ECFEEDFF7414E0
:1045F3001217431246D2F50875090074027808129F
:10460300161185080E85090FAA0EAB0F1273F070F1
:10461300030246CB7900803EE9F51275130074025C
:104623007812121611E50C2512FCE50D3513FD8CDD
:1046330082F583A31245C3124ED5A31245C3A3F03B
:10464300EC2403FC50010DF5828D83E0124ECF1252
:104653004EA950010B09850C82850D83E0F8E9C34F
:104663009840B5740168700AA3E07006750E017571
:104673000F0078081213B6780E1213B6741C1217B3
:10468300431246E41213BAE4F50CF50D780C121339
:10469300B6741E1217431246E41213BA741E12178D
:1046A300431246E41213BA750B00780B1213BA7552
:1046B3000B07780B1213BA124D9F1213C9E9FEAA06
:1046C30008AB09121F7880027E10EEF90245AE1284
:1046D30046D622E0F50CA3E0F50D850C82F583E0C8
:1046E30022E0F50B780B22EC75F003A4FAABF0E5AE
:1046F3000C2AFAE50D3BFB8A82F583124928F0EA7E
:104703002402FA221246D675F003A4F50EE5F0F55D
:104713000FAA0E1271DE22F5828B83124ADF124931
:1047230021A3A3F0E82403F82274E8120DB674FE63
:104733001214AC1249731217431249158009EE245F
:1047430002FEE43FFF05081245D55037E50875F032
:104753000D1248CC2404FEE43FFFE070E8A3E070B0
:10476300DDEE2405FEE43FFFE82404F50AE43912F4
:1047730048E760D1850A82850B83E0F91222F0EEC7
:104783002980BE1245B370030248C78A0E8B0F758A
:1047930008008018E50C2409FAE4350DFB8A82121F
:1047A30048F512491DF08C0E8D0F05081245D540B2
:1047B30003024864E50875F00D12492FAA82AB8302
:1047C3001245D0F0E50C24021245C7124944A3F068
:1047D300E50E2404F50E5002050F850C82850D832A
:1047E300E070C7E50E2402FCE4350FFD850E8285DB
:1047F3000F83A3A882A9838A828B83E07096E50C3A
:104803002404F512E4350DF5138512821248F5F0F0
:10481300E50C2405F516E4350DF51785168212739C
:10482300F41249562407F8E4350DF988821248F545
:1048330012496BF0E50E2405F50E5002050F8512A3
:10484300828513831248EE70030247ADAC0EAD0FA1
:10485300E50C240BF582E4350DF583124903024779
:10486300AD780A1213B68E0C8F0D780C1213B67432
:104873002212174312490B1213BAE4F50CF50D7803
:104883000C1213B6742412174312490B1213BA7481
:104893002412174312490B1213BA75080078081231
:1048A30013BA75080978081213BAAC14AD15740B52
:1048B3001217431248DC1213C9E9FEAA0AAB0B1202
:1048C3001F7880027E10026D3FA4F8A9F0E510283E
:1048D300F582E511124A7AEE22125E2AA909122202
:1048E30054740B22F50B850A82F583E0F91222E456
:1048F300E922F5831248FB22E0850E82850F83228D
:10490300124AE48A0E8B0F22E0F5087808228E8281
:104913008F83E0F510A3E0F5112212492122123E04
:10492300CB12492822A3E08882898322126D038552
:10493300820C85830D1248FBF0850C82850D83A3C1
:104943002212494822A3124B81E0850E82850F83F0
:10495300A3A322F0851682851783124964F0E50C20
:1049630022A3E08C828D8322A3A3124948A3A3220E
:10497300851882851983EAF0A3EBF089098C148DDD
:10498300157E007F00750800741A2274EA120DB6B2
:10499300890B8A108B118C0E8D0F7E007F00750A98
:1049A3000074161217431253178003124A47850CDB
:1049B30082850D83126B5440F2EEFAEF1273EF60AF
:1049C3007EA808A909750A008003124A83850C8210
:1049D300850D83E0FAE50AC39A40EF78081213B60F
:1049E3008E0C8F0D780C1213B6741E121743126BB4
:1049F3007A1213BAE4F50CF50D780C1213B6742081
:104A0300121743126B7A1213BA7420121743126BE4
:104A13007A1213BA750A00780A1213BA750A0A7859
:104A23000A1213BAAC0EAD0FAA10AB11A90B124D9B
:104A3300A91213C9E9FEAA08AB09121F7880027EE6
:104A4300100244F4E50A75F005A4F8A9F0E50C2872
:104A5300F582E50D124A7AA3A3A31277EDA3A3E08F
:104A6300F91222F68B09EA2403F8E43509F9EE2852
:104A7300FEEF39FF050A2239F583A3A882A9832211
:104A8300E50A75F005A4FAABF0124AD385821485C2
:104A93008315124929124ECA88828983A3F0E5142B
:104AA30012753035158A12F5138A82F583124ADF9F
:104AB300A3F0E82403FCE439FD851482851583A360
:104AC300A3A3124AE48A128B13A812A913050A227C
:104AD300E50C2AF582E50D3BF583A322124929A3B0
:104AE30022125E2E851282851383E0F91222DE22C2
:104AF30074F6120DB674FE1214ACE9FE740C1217A0
:104B030043124B72C0E07401121743D0E0F0A818AF
:104B1300A9198808890978081213B6750802750956
:104B23000078081213B6741612174312490B1213A6
:104B3300BA74151217431211CD7416121743124982
:104B43000B1213BA741612174312490B1213BA75C8
:104B5300080078081213BA75080B78081213BAEE16
:104B6300F9124DA91213C974021213C90256A412E1
:104B7300724D8882F583124325124B81E022F0881F
:104B8300828983A32274EA120DB689138A108B11CA
:104B9300ECFEEDFF741612174312754EE50A24025C
:104BA300F50CE4350BF50D850C82F583E0047512E5
:104BB30000F50E750F00FAAB0F1273F07003024C81
:104BC300B3850A82850B83124D93801EEAFC850A06
:104BD30082850B83A3A3A3E02CFBA3E034008B8289
:104BE3001273F4F0A3A882A9830A850C82850D832E
:104BF300E0FBEAC39B40D5850A82850B83A3E0F8DB
:104C03007418121743E0F97419121743E0FA741A6F
:104C1300121743E0FB741168703978081213B678E1
:104C23000E1213B6EBF50A780A1213BAE4F50AF575
:104C33000B780A1213B6EAF50A780A1213BAE9F5E1
:104C43000A780A1213BA750A00780A1213BA750A97
:104C530012803C741368704F78081213B6780E12E2
:104C630013B6EBF50A780A1213BAE4F50AF50B78D2
:104C73000A1213B6EAF50A780A1213BAE9F50A78A2
:104C83000A1213BA750A00780A1213BA750A14784D
:104C93000A1213BAEEFCEFFDAA10AB11A913124DC1
:104CA300A91213C9E9F512AA08AB09121F788003E8
:104CB300751210A9120244FC74E8120DB689108A09
:104CC300128B13ECFEEDFF7418121743124EB575D9
:104CD300F003A4A9F02401F50EE4391273EB700379
:104CE300024D8C850C82850D83124D93802EEA75BF
:104CF300F003A4FCADF0E50C2CFCE50D3D124E9B3E
:104D03001273F4124EC688828983124EDC8882891C
:104D130083A3A3F0E82403F85001090A850A8285D6
:104D23000B83E0FBEAC39B40C578081213B6780EE9
:104D33001213B67420121743126B7A1213BAE4F5E6
:104D43000AF50B780A1213B67422121743126B7A00
:104D53001213BA7422121743126B7A1213BA750A1A
:104D630000780A1213BA750A0D780A1213BAEEFC08
:104D7300EFFDAA12AB13A910124DA91213C9E9FE34
:104D8300AA08AB09121F7880027E10EEF9026D4665
:104D93001257ECF0A3A882A9837A0022EEFCEFFD60
:104DA300AA10AB11A90A122254740B2274E8120D33
:104DB300B689128A108B11ECFEEDFF74181217439B
:104DC300124EB5F50875090074027808121611E53C
:104DD300082401F50EE435091273EB7003024E96B5
:104DE300850C82850D831257E3A3AA82AB837900D6
:104DF3008034E9F51475150074027814121611E560
:104E03000C2514FCE50D3515124E9B1245C1124EAF
:104E1300C68A828B83124EDC124ECFA3A3A3A312A6
:104E23004EA950010B09850A82850B83E0F8E9C37B
:104E33009840BF78081213B6780E1213B674201276
:104E43001743126B7A1213BAE4F50AF50B780A12B8
:104E530013B67422121743126B7A1213BA74221206
:104E63001743126B7A1213BA750A00780A1213BA2F
:104E7300750A16780A1213BAEEFCEFFDAA10AB11ED
:104E8300A912124DA91213C9E9FEAA08AB09121FF0
:104E93007880027E10024D8EFDEC2402F514E43D71
:104EA300F515851482221257ECA3A3A3F0EA240478
:104EB300FA2212531B850C82F583A385820A85830C
:104EC3000BE022124ECA22127239E0228A828B83AD
:104ED300A3A3F08C828D83A322A3F08C828D83A362
:104EE300A3A3A3E02274F1120DB674EB1214ACEA7F
:104EF300FEEBFFC200EA2420F8E43F8808F50988A6
:104F030082F583C3E09403A3E09400500579010282
:104F1300530F9019891277E774021217431277E738
:104F2300740E121743E4F0A3F0740A121743E4F06B
:104F3300A3F0740C121743E4F0A3F0EA2422F8E47C
:104F43003F880AF50B8882F583126E517404121799
:104F530043AA82AB831222968A0C8B0DA80CA90D4F
:104F6300740A1217431277E7850882850983125E54
:104F730022EAC398F8EB99F9850A82850B83E02826
:104F8300F8A3E039F9740C121743126D3574081243
:104F93001743E0901980F0EE2414F508E43FF50977
:104FA300850882F583E0F912369A8A828B83E5823B
:104FB3004583700C901989E4F0A3F0790202530F32
:104FC30012535D602BEE2404F50AE43FF50BA312A4
:104FD30011CD740B121743E0FD7406121743E0540E
:104FE30003FC12536C12224E74021213C9E9700CA3
:104FF300901989E4F0A3F0790302530F12536C1252
:1050030022C6E9F50E850A82850B83125E22EAFC2D
:10501300EBFD901981800488828983125CC470033C
:1050230002510B88828983A3A3125317C3EA950CF9
:10503300EB950D40E288828983A3A3A3A3C3E09CDD
:10504300A3E09D40D2E8FCE9FD7404121743E05449
:1050530007700D7409121743E0640B700302510FBC
:10506300E50EA2E6400302510FEE2419F582E43F58
:10507300F583E0600302510F740212174312533594
:10508300707A7402121743125CBF70707C0085083B
:1050930082850983E0F91222CC740112174374014B
:1050A300F07409121743125323121743E0F50C78D7
:1050B3000C1213BA74071217431211CD750C017831
:1050C3000C1213BA74081217431274001213BA7431
:1050D3000512147E880C890D780C1213B67409120C
:1050E30017431253541217431253291217431253DF
:1050F300431213C97C0112536C1222CC901989E418
:10510300F0A3F0790502530F7C007D00740412179D
:1051130043E0F85403600302522AE8540460057E16
:10512300840252697409121743E0F8C394174003C9
:10513300025226E8F50A750B007402780A1216115A
:1051430074E1250AF582743B350B1257CBE849709D
:1051530003025226850882850983E0C0E074101299
:105163001743D0E0F0740C121743125E227411122D
:1051730017431277E7740A121743125E227413124D
:1051830017431277E7741012148688828983120FEB
:10519300858B09A909740E1217431277E7EA496050
:1051A300487409121743E0F508750900740278087A
:1051B30012161174E32508F582743B3509F583E46F
:1051C30093F87401938882F583E5824583601274B2
:1051D30002121486120F85740E121743125CC460F8
:1051E30008740E1217431277967409121743E0F8E6
:1051F3006054740268604F740368604A74066860A0
:10520300457408686040740C68603B7411686036CC
:105213007413686031741568602C740B6860277EA2
:105223000080437E82803FEC4D602B8C828D83A374
:10523300A3A312535D601F7402121486120F85E933
:10524300FE74FF6E700B901989E4F0A3F0F902531A
:105253000F74016E70107404121743E05404600459
:105263007E8380027E817402121743125335707558
:105273007402121743125CBF706B7404121743E07D
:10528300FA541070607401121743EEF07409121788
:105293004312532312174312490B1213BA74071202
:1052A30017431211CD75080178081213BAEA1313C4
:1052B30013541F64015401F50878081213BA7405D6
:1052C30012147E8808890978081213B67409121714
:1052D30043125354121743125329121743125343C1
:1052E3001213C9D200901989E4F0A3F0EE70047987
:1052F30000801974846EA200700A50047907800C30
:10530300790680085004790980027908741512130C
:10531300C9025C2F12531B22E0F50CA3E0F50D220A
:10532300127791740822E02406FAA3E03400FB7498
:105333000922125F55C82415F582E438F583E0226B
:10534300A3E0C8126E3F38F583E0F91222787407A0
:105353002212713112721D740922A3A3A3125F5585
:105363008882F583E582458322850A82850B831231
:105373005E2A850882850983E0F92274F4120DB64A
:105383008A088B09ECFEEDFF7C067D007900121E76
:10539300CA850882850983E054FCF8A3E0F98E826C
:1053A3008F83E05403FAE84A850882850983F0A3D2
:1053B300E91277DDA2E25004D2F08002C2F0850840
:1053C30082850983E054FBF0A2F0E433F50A750B00
:1053D300007402780A121611E0450A1277DDA2E37F
:1053E300850882850983E050044408800254F7123B
:1053F30077DDA2E45004D2F08002C2F085088285F2
:105403000983E054EFF0A2F0E433F50A7404780A58
:10541300121611E0450A1260A9850882850983E006
:10542300540460108E828F83E0FAA3E0F9EA1265D8
:10543300FA50010F8E828F83125457A3125465853D
:105443000882850983A3A3A3A3A3F0EE1275303FBB
:10545300FB0240BB12545CA322E0850882850983CA
:10546300A322A31268A3E02274F7120DB68A828BDB
:1054730083E054038C828D831254E354041254DC6E
:1054830054081254DC5410F88C828D83E048F0A346
:10549300AC82AD838A828B83E0540460161254D0AD
:1054A300124965124B7C8C828D83A3F0EC2402FCA1
:1054B30050010D8A828B83A3A3A31249641254E87B
:1054C300124965A3F0EC1275303DFB802EEA2402ED
:1054D300F8E43BF98882F58322F88C828D83E048D7
:1054E300123ECBE0221254EC221254F1A322F08A92
:1054F300828B83A3A3A3A3221222247F010211067A
:10550300C082C08390198380048A828B831244EE05
:10551300600C8A828B83A3A3E06970ED80047A0018
:105523007B000240D3C082C08390198580048A82A5
:105533008B831244EE60138A828B83A3A3E0F8E982
:1055430068600B74FF6870E680047A007B00024099
:10555300D374F0120DB68A088B09ECFEEDFF12220C
:10556300A88A0C8B0DEA4B60627C0080010C850CD1
:1055730082850D83A3A3A3A3A3A3A3125F3B504BD5
:10558300ECF50E750F007403780E121611850C825C
:10559300850D83A3A3A3A31257D58882F583E49330
:1055A300FA740193FBE5086A7003E5096B70BEA307
:1055B300A31255D27002EF6B70B37410121743121B
:1055C30055DC74081212CE7901800279008015E44B
:1055D30093FA740193FBEE6A221272218983888203
:1055E300221213C97F0802110674F6120DB6125661
:1055F300186005125E1F80047A007B000256A474B3
:10560300F6120DB61256186005125E1D80047A005C
:105613007B000256A41222A88A828B83E5824583EB
:105623002274F7120DB6E9FFEAFCEBFD90198780AF
:105633000488828983125CC4604688828983A3A319
:10564300E06F70ED7E0080010E88828983A3A3A39F
:10565300E0FAEEC39A50DAEE75F003A4FA85F00887
:10566300AB0888828983A3A3A3A3E02AFAA3E03B20
:10567300FB8A82F583E06C7003A3E06D70CA80043B
:105683007A007B000254FE74F6120DB61222C08A11
:10569300828B83E58245836006A3A3E0F9800279C8
:1056A300007F0202110674F6120DB6ECFF1222C03F
:1056B3008B09A909EA496015EA2402F582E439F560
:1056C30083EF6005E0D2E68003E0C2E6F080D274A7
:1056D300F0120DB6EAFEEBFF8C098D0A1222A28AA4
:1056E3000C8B0DEA4B70030257C0750B007410123C
:1056F3001743126B49FAE9FB80128C828D83A3A3B3
:10570300A3E493A2E350030257A6050B850C8285FD
:105713000D83A3A3A3E0F8E50BC39840030257C08E
:10572300E50BF50E750F007402780E121611850C39
:1057330082850D831257D51257C5EE687002EF6943
:1057430070C88A828B83E0F88C828D83A3A3E49351
:10575300C39840B67411650970197401650A609A9B
:10576300E50A70A68C828D83A3A3A3E493A2E240EF
:10577300328097741365097044E50A700D8C828D2D
:1057830083A3A3A3E493A2E080E57401650A600305
:1057930002570D8C828D83A3A3A3E493A2E140035C
:1057A30002570D74121217431258BC74041212CE0E
:1057B30088828983A3A31257E379018002790002C7
:1057C30055E7E8FCE9FD8882F583E493F8740193D7
:1057D300F922A3A3A3A3E0250EF8A3E0350FF92232
:1057E3001257ECF0228E828F83E08A828B8322749D
:1057F300F0120DB68A088B098C0B1222A88A0E8B25
:105803000FEA4B70030258A97A007B007410121739
:1058130043125F4880050AEA70010B850E82850FEB
:1058230083A3A3A3A3A3A3A3E0F8C3EA98EB9400E1
:1058330050748A0C8B0D7403780C121611850E822A
:10584300850F83A3A3A3A31258AE1257C5E5086817
:105853007003E5096970BFA3A3E493F50C74019386
:10586300F50D8E828F8312718BC3E50C98E50D992C
:1058730040A48C828D83A3A3A3A3A3E493A2E7E410
:1058830033650B709174121217431258BC740812CB
:1058930012CE88828983A3A312718B8E828F831287
:1058A3006D357901800279000255E7A3A3A3A3E034
:1058B300250CF8A3E0350DF92212724D8C828D83ED
:1058C300E8FCE9FD2274F1120DB6EAFEEBFFECFAF7
:1058D300EDFBEE4F7003025A3AEC2402F50CE43B65
:1058E300F50D8C828D83A3AC82AD838E088F0975F1
:1058F3000A00E912127E044142075A4344195AE04E
:10590300E2D259E8E97E5921087059097E590A946F
:10591300590BD259107059187059197E591A945944
:105923001BD259207059217E5922945923D25924CC
:10593300E35925EC5926F55927FE59287059297E34
:10594300592A94592BD2592CE3592DEC592EF55938
:105953002FFE59307059317E59387E5939D2593A10
:10596300FE59EAD259F0FE59F12B5A3A5A8E828FD8
:10597300831257E3ECFAEDFB025A3A8E828F8312BD
:1059830045C31254668C828D83F00A0AAB0D025A0A
:105993003A8E828F8378081216D48A828B83E50825
:1059A3001268A878081216D4E5098C828D831268D0
:1059B300A878081216D47410780812144D850C8236
:1059C300850D83E508F0EA2403FA506B0B80688E9B
:1059D300828F831211C9121F4874041213C980578E
:1059E30078081213B27C05804678081213B27C063D
:1059F300803D78081213B27C07803478081213B202
:105A03007C08802B78081213B28E828F83E02401E6
:105A1300FCE43400800F78081213B28E828F831255
:105A23005BC4FCE439FD800978081213B27C107D55
:105A3300001260A31213C9025C2FC082C083E91253
:105A4300127E03202F555A383A555AE0E2555A0030
:105A5300595A7901800279000240D374F2120DB6CB
:105A630074FE1214ACEAFEEBFF8C088D091222F6C9
:105A73008518828519837401F0A3E4F08518828563
:105A83001983E0600C750C01750D007800790080B6
:105A930033750CFF750DFFEA24FFF8EB34FF802309
:105AA300850882850983E0C0E0EE28F582EF39F5A9
:105AB30083D0E0127316858208858309E8250CF8E4
:105AC300E9350DF9EAFCEBFDEC24FF1AED34FFFB9D
:105AD300EC4D70CC74021213C9025EA4E924F86081
:105AE3007814607914607A14607B24FB606B24F86B
:105AF300606714606814606914606A24FB605A1458
:105B0300605B14605C14605D14605E14605F14601D
